:020000040800F2
:10000000A8BF0020E90200085FC900086796000841
:100010005DC9000831300008B51801080000000073
:100020000000000000000000000000005102000875
:10003000F13500080000000095020008BDD7000857
:100040000303000803030008030300080303000878
:100050000303000803030008030300080303000868
:100060000303000803030008030300080303000858
:100070000303000803030008030300080303000848
:1000800059330008893300080303000803030008FC
:100090000303000803030008030300080303000828
:1000A0000303000803030008030300080303000818
:1000B00003030008FD070108B10801080303000855
:1000C00003030008030300080303000803030008F8
:1000D00003030008E91501084D1601080303000891
:1000E00003030008030300080303000803030008D8
:1000F00003030008030300080303000803030008C8
:1001000003030008030300080303000803030008B7
:1001100003030008030300080303000803030008A7
:100120000303000803030008030300080303000897
:1001300000F002F800F07CF80AA090E8000C82447D
:100140008344AAF10107DA4501D100F071F8AFF25A
:10015000090EBAE80F0013F0010F18BFFB1A43F0A5
:100160000103184738D9040058D904000A444FF055
:10017000000C10F8013B13F0070408BF10F8014B06
:100180001D1108BF10F8015B641E05D010F8016B4B
:10019000641E01F8016BF9D113F0080F1EBF10F8AF
:1001A000014BAD1C0C1B09D16D1E58BF01F801CBD2
:1001B000FAD505E014F8016B01F8016B6D1EF9D555
:1001C0009142D6D37047000000230024002500266A
:1001D000103A28BF78C1FBD8520728BF30C148BFAA
:1001E0000B607047662926F01C80672926F019806D
:1001F000642900F01981752900F01681782900F032
:100200004F81732900F00B87002070471FB501F064
:1002100033FA04000020002124F078FE401C6060C6
:100220000020002124F088FEE0601FBD10B510BD45
:1002300001F0E8FC1146FFF7E9FF21F011F801F0A9
:100240002DFF03B4FFF7F2FF03BC20F0DFFB00003B
:10025000224B19680868B0E8F00F80F30988BFF3F3
:100260006F8F4FF0000080F311884EF00D0E704735
:100270000000000006480068006880F3088862B645
:1002800061B6BFF34F8FBFF36F8F00DF00BF00BFBA
:1002900008ED00E0EFF30980BFF36F8F0F4B1A6892
:1002A00020E9F00F106008B54FF0500080F311887E
:1002B000BFF34F8FBFF36F8F23F012FF4FF000009B
:1002C00080F31188BDE8084019680868B0E8F00FAD
:1002D00080F30988BFF36F8F704700BFF4000020E0
:1002E000EFF3058070470000094880470948004740
:1002F000FEE7FEE7FEE7FEE7FEE7FEE7FEE7FEE7D6
:10030000FEE7FEE704480549054A064B7047000032
:10031000D1D7000831010008A8B90020A8BF0020EB
:10032000A8BB0020A8BB0020704710B5044600F011
:10033000CDFB0068005DC00602D504F1200010BDB1
:10034000204610BD0FB4044910B503AA029800F06E
:100350006BFE10BC5DF814FBC00000200FB41CB590
:10036000084B06AA7B4469460090059800F02DFED4
:1003700004460020694600F03BFE20461CBC5DF8A8
:1003800014FB0000890C000070B504468569006804
:10039000C10601D5302600E02026C00707D070BD79
:1003A000D4E9012130469047206A401C20626D1E2E
:1003B000F6D570BD70B5044685690078C00707D1D1
:1003C00070BDD4E9012120209047206A401C2062A2
:1003D0006D1EF6D570BD70B50C460546012A05D0D8
:1003E0002878800600D5EA69002302E0012305E0B1
:1003F0005B1C934202D2E05C0028F9D1A869E618A0
:10040000C01AA861286A184428622846FFF7BCFF72
:1004100004E0D5E9012114F8010B9047B442F8D368
:100420002846FFF7C7FF70BD2DE9F04106460024BE
:1004300010687529314616A510D0AFF3008000284A
:1004400002DA404213A507E031688A0701D512A5F8
:1004500002E0490704D511A5012401E0AFF30080B3
:1004600000210A2206F1240709E0B0FBF2FCB0FBF0
:10047000F2F302FB1C00303078541846491C002867
:10048000F3D123462A463046BDE8F04100F031BBA7
:10049000000000002D0000002B00000020000000E4
:1004A00070B504460D4621461068AFF300802188E0
:1004B000090502D50F4A7A4402E00E4A7A440E3208
:1004C000002104F1240305E000F00F060009965D09
:1004D0005E54491C0028F7D120780023000704D57A
:1004E000702D02D009B1022311322046BDE87040C0
:1004F00000F0FFBA1AD404002DE9F05F89460446E3
:100500004FF0000ADFF874B1FB44C0F820A0204689
:10051000E1688847002874D0252806D0D4E9012155
:100520009047206A401C2062F1E700265F46204683
:10053000E16888472028054607DB312D05D2781968
:1005400010F8200C08B10643F1E7B00701D526F0FA
:100550000406C4F81CA00027C4F818A02A2D09D04E
:1005600028461FF03DFE38B304EB8708303DC8F83D
:10057000185019E059F8041B204604EB87029161DA
:10058000E1688847012F054618D1E069002820DA84
:1005900026F020061DE0D8F8180000EB800005EBDF
:1005A00040003038C8F818002046E1688847054602
:1005B0001FF016FE0028EED1012F0AD02E2D08D1F3
:1005C0002046E16888477F1C0546022F46F020063A
:1005D000C4DBA069002803DA404246F00106A061AE
:1005E000F00701D026F010066C2D0BD0682D09D035
:1005F0004C2D39D06A2D35D0742D35D07A2D33D08D
:1006000016E038E0E1682F4620468847B8420546A4
:1006100009D16C2F26D04FF48060E1680643204654
:100620008847054604E06C2F1AD04FF480700643CB
:100630000DB3A5F14100192802D8203546F4006613
:100640004A462946204626604E46FFF7CBFD80B13C
:1006500001280BD0F61D26F0070000F1080956E727
:100660004020E4E78020D8E70020D6E706F104091F
:100670004DE7284652E7206ABDE8F09FF0D304001A
:100680000FB400B58DB010A9099000910B904FF0F8
:10069000FF300A9000200C900648784406900648E7
:1006A00078446A4607900F9909A800F027FF0DB01B
:1006B0005DF814FB7F0E0000970E000040EA010376
:1006C00010B59B070FD1042A0DD310C808C9121FFB
:1006D0009C42F8D020BA19BA884201D9012010BD35
:1006E0004FF0FF3010BD1AB1D30703D0521C07E002
:1006F000002010BD10F8013B11F8014B1B1B07D166
:1007000010F8013B11F8014B1B1B01D1921EF1D1D6
:10071000184610BD40EA0103024630B59B0710D1D0
:100720004FF0013400E008C208C91D1B9D4315EAC3
:10073000C41FF8D013F0FF0102F8011B0DD01B0AF3
:10074000F8E711F8013B002B02F8013B05D011F846
:10075000013B002B02F8013BF3D130BD10B5431C27
:1007600002E010F8011B71B18107FAD14FF001329C
:1007700002C88C1A8C4314EAC211F9D0C01A0A06B6
:1007800003D0C01E10BDC01A10BD0A0401D0801EC7
:1007900010BD0902FCD0401E10BD40EA010370B537
:1007A0009B072ED14FF00136042A2AD308C810C95E
:1007B0009D1B9D43121F15EAC61517D0D8B2E1B292
:1007C000401A50EA056110D198B2A1B2401A50EA1D
:1007D00005410AD123F07F4024F07F41401A50EABE
:1007E000052102D1180EA0EB146070BDA342DBD02E
:1007F00018BA21BA884201D9012070BD4FF0FF30EC
:1008000070BD0AB9002070BD10F8013B11F8014B12
:1008100063B1A3420AD1521E08D010F8013B11F86F
:10082000014B1BB1A34201D1521EEDD1181B70BD6B
:10083000032A40F2308010F0030C00F0158011F80C
:10084000013BBCF1020F624498BF11F801CB00F8E4
:10085000013B38BF11F8013BA2F1040298BF00F838
:1008600001CB38BF00F8013B11F0030300F06780B3
:10087000083AC0F0088051F8043B083A51F804CB1C
:10088000A0E80810F5E7121D5CBF51F8043B40F8E2
:10089000043BAFF30080D20724BF11F8013B11F8ED
:1008A00001CB48BF11F8012B24BF00F8013B00F831
:1008B00001CB48BF00F8012B7047431A28BF9A426A
:1008C0007FF6B6AF032A1044114440F2268010F0A0
:1008D000030F1EBF11F8013D521E00F8013D10F03C
:1008E000030F7FF4F6AF11F0030300F09A86083A85
:1008F000C0F00B8051F8043D083A51F804CD40F89F
:10090000043D40F804CDFFF7F3BF121D5CBF51F862
:10091000043D40F8043DAFF30080D20724BF11F836
:10092000013D11F801CD48BF11F8012C24BF00F89A
:10093000013D00F801CD48BF00F8012C704710B50B
:10094000203AC0F00B80B1E81850203AA0E81850C7
:10095000B1E81850A0E81850BFF4F5AF5FEA027C88
:1009600024BFB1E81850A0E8185044BF18C918C0F7
:10097000BDE810405FEA827C24BF51F8043B40F898
:10098000043B08BF7047D20728BF31F8023B48BF7D
:1009900011F8012B28BF20F8023B48BF00F8012BBB
:1009A000704702F0FF0343EA032242EA024200F0EA
:1009B00002B84FF000020429C0F0128010F0030CBE
:1009C00000F01B80CCF1040CBCF1020F18BF00F842
:1009D000012BA8BF20F8022BA1EB0C0100F00DB8F1
:1009E0005FEAC17C24BF00F8012B00F8012B48BF4F
:1009F00000F8012B70474FF0000200B513469446F3
:100A00009646203922BFA0E80C50A0E80C50B1F166
:100A10002001BFF4F7AF090728BFA0E80C5048BF7A
:100A20000CC05DF804EB890028BF40F8042B08BF18
:100A3000704748BF20F8022B11F0804F18BF00F814
:100A4000012B70474FF0013C50F8042B51F8043B48
:100A50009A4221D1A2EB0C03934313EACC1317D192
:100A600050F8042B51F8043B9A4215D1A2EB0C0329
:100A7000934313EACC130BD150F8042B51F8043BE9
:100A80009A4209D1A2EB0C03934313EACC13DBD0B7
:100A90004FF00000704700BFD01A01BAB1FA81F1DF
:100AA00001F0180122FA01F0CB40C1F12001DBB2C4
:100AB000C0B2C01A2CFA01F3D11A914311EAC31142
:100AC000E6D17047704770477047704710B500F027
:100AD000D3FD001D10BD00BF3544020010B500F06D
:100AE000CFFD006810BD10B5044600F0C9FD0460DC
:100AF00010BD2DE9F0470D4699469246044600F197
:100B000024080168880604D5E06921F010012160FD
:100B100000E00120A84201DD471B00E00027A16999
:100B20007A1902EB0900081AA0612078C00602D4E5
:100B30002046FFF729FC002608E0D4E901211AF835
:100B400006009047206A401C761C20624E45F4DB6C
:100B50002078C0060AD52046FFF716FC06E0D4E947
:100B6000012130209047206A401C2062381EA7F1E6
:100B70000107F4DC07E0D4E9012118F805009047EB
:100B8000206A401C2062281EA5F10105F3DC2046E6
:100B9000FFF710FC2078000602D50220BDE8F087A0
:100BA0000120FBE770472DE9FF4F0C461E464FF032
:100BB000FF378BB0D2E90001DDF860800A908A46E9
:100BC000C1F30A5505B93D46002108464FF0000023
:100BD000BAF1000F00F4400005DA00EB80004FF49A
:100BE000400101EA50004FEA9059B9F1010F00DDD0
:100BF000B9460A9850EA4A000ED044F61050A5F2C1
:100C0000FF3545432F14B8F1000F1ED07542291E41
:100C10001EDDC9F100021CE0B8F1010F4FF0000029
:100C200001D0302103E0F24305E02154401CB042E2
:100C3000FBDB30460022002121540B99C1F80880CB
:100C4000C1E900200FB0BDE8F08FBD1B6D1CDEE7D1
:100C50004A4600DA694206A800F05EFF06AB93E858
:100C6000070003AB83E8070050460A9901F03DFAFC
:100C70008DE80700A0F500501F3800900398002D64
:100C800009DD42F21F014A46084403A90390684661
:100C900001F0C7FC08E0A0F500504A461F3803A940
:100CA0000390684601F0E5FC8DE807000004000CA5
:100CB00003D04FF0FF30410800E01046B8F1000FBC
:100CC00003D00022009215461EE0751E05D400F0E8
:100CD000DBFC303262556D1EF9D5B3460122084364
:100CE00002D000227F1C04E02078302801D10022AD
:100CF0007F1E002A099786D01DE0112D07DA00F02B
:100D0000C3FC303262556D1C50EA0102F5D1084334
:100D100002D00098C8B10EE00021681E05E0235CF7
:100D2000625C63542254401E491C8142F7DBAB468F
:100D3000A81B401E0990002004F80B000B98099A8C
:100D4000C0F80880C0E9002B7CE711264FF00008AE
:100D500059E72DE9F04F88460446D21D22F00701DD
:100D600091B0D1E90001CDE90A011EF0B3FD0246C0
:100D70000B98C00F01D02D2007E02068810701D516
:100D80002B2002E0202101EAC000032A099001D0B3
:100D9000072A05DB03464146204600F0C3FC0BE171
:100DA0002078800601D5E06900E00620B8F1650FE3
:100DB000814606D0B8F1660F18D0B8F1670F70D130
:100DC00031E00020B9F1110F009001DB112301E0A7
:100DD00009F101030AAA01A90CA8FFF7E4FEDDE965
:100DE0000C70002609F10105834647E001204B46BF
:100DF00000904FF000470AAA01A90CA8FFF7D3FE04
:100E0000DDE90DB00C995D46002610B909F101002D
:100E10000D18B9EB050003D4C0F1FF3609F1010547
:100E2000A5EB09002BE0B9F1010F01DA4FF0010940
:100E30000020B9F1110F0090484601DD112300E0B8
:100E400003460AAA01A90CA8FFF7ADFEDDE90C7064
:100E50004D4600268346207800070AD4AB4500DAC9
:100E60005D4601A8012D04DD411911F8011C30294E
:100E700007D04F4502DA17F1040F04DA0120824649
:100E80000FE06D1EEEE7002F02DCED1B3E4403E099
:100E9000781CA84200DD7D1CB81B00F1010A4FF050
:100EA00000472078000703D4AA4501DB4FF0FF3A42
:100EB0000021B7F1004F0DF143088DF8431024D005
:100EC00002202B23002F01DA7F422D230A21021E4C
:100ED000A0F1010000DC5FB197FBF1FC97FBF1F2A0
:100EE00001FB1C7C17460CF1300C08F801CDEEE735
:100EF000A8F1010003702188090501D5452100E012
:100F00006521A0F1010800F8011C09980FA9A1EBC7
:100F10000807FF1D00B10120411901EBEA70A1692A
:100F20003844081A401EA0612078C00602D420462A
:100F3000FFF72AFA099828B1D4E901219047206ADD
:100F4000401C20622078C00622D52046FFF71CFAFC
:100F50001EE0002E04DBB34502DD01A8805D00E049
:100F60003020D4E901219047206A401C2062761C81
:100F7000AAF101005FEA000A0AD100F07DFBC06817
:100F80000168405CD4E901219047206A401C20623E
:100F9000281EA5F10105DCDC07E0D4E9012118F8E1
:100FA000010B9047206A401C2062381EA7F1010700
:100FB000F3DC2046FFF7FEF9032011B043E6000002
:100FC00001694A1C02610878704700B58FB0CDE90D
:100FD00001310021059105497944CDE903101146FD
:100FE0006846FFF789FA0FB000BD0000E5FFFFFF7C
:100FF0000A6802F8010B0A60704710B5436913B123
:10100000AFF3008001E0FFF7E6F9012010BD127890
:1010100000F124010A7000224A700122EDE71168F4
:101020004FF0FF32E9E70000074B70B50D467B44F7
:10103000FFF7CBFF0446284600F0DCFD10B14FF06F
:10104000FF3070BD204670BDA3FE01002DE9FF4FAB
:10105000064689B00878FF2806D0491C2D2805D0FF
:1010600000244FF0000908E000200CE00124F8E71C
:1010700009EB8903491C00EB43090878FF28F7D1E5
:1010800014B1C9F100008146107800252C46AA460B
:1010900029462D2801D02B2804D1521C2D2813D0ED
:1010A000002082468B461078FF280FD04FF0000CAE
:1010B0000A21521CA5FB017804FB018105FB0C11E0
:1010C000C5194BEB0104EEE70120EAE700210846D1
:1010D0004FF00000BAF1000F02D000EB8000400892
:1010E000C0F38158B8F1010F01DD4FF0FF380C98C3
:1010F00009EB000755EA040009D04FF0020917F583
:10110000FA7F0BDA4FEACA70C6E900B012E04FEA84
:10111000CA70C6E900B00DB0BDE8F08FB7F5FA7F30
:101120000DDDF0487844D0E90010C6E9001040EA2F
:10113000CA70706000F0A4FAC0F80090EBE7391EA6
:1011400002DAC8F1000200E0424600DA794206A85D
:1011500000F0E2FC06AB93E8070003AB83E807006E
:1011600044F23E005BEA04010090584604D144F288
:101170001E012C465D460091210C0904014306D155
:101180000099240444EA15442D041039009104F018
:101190007F41014306D10099240244EA15642D02DF
:1011A0000839009104F07041014306D100992401EF
:1011B00044EA15742D01091F009104F040410143D8
:1011C00006D10099A40044EA9574AD00891E0091EF
:1011D00004F00041084304D100986D196441401E99
:1011E000009042466846002FCDE9014503A902DD83
:1011F00001F053FA01E001F028FABAF1000F0446B9
:101200000D4601D084F0004440F2FF7724F0004006
:10121000284303D0C4F30A50B84212D100F030FA88
:10122000C0F80090C4F30A50B8420AD1AE487844DE
:10123000D0E90010C6E9001004F0004108437060D6
:1012400069E7C6E9005466E72DE9FF4F1F464FF0F6
:10125000000A4FF0FF38454691B0D7E90146CDF876
:101260003CA000F009FAC0680168405C1090B969C0
:1012700012986D1C8847396A814688470028F6D144
:10128000B9F1FF3F0AD0002E24F4D06411DDB9F18A
:101290002B0F08D0B9F12D0F0BD102E0404615B04D
:1012A0003AE744F48064B96912986D1C8847761E49
:1012B0008146600504A901D52D2000E02B20002ED9
:1012C00001F1010B0DF130088DF810003FDDB9F18F
:1012D000690F08D0B9F1490F05D0B9F16E0F02D0EE
:1012E000B9F14E0F1CD13B4601A8009580E8500291
:1012F000DDE912126FF0020025F01FF8C11CCED1FB
:101300000EE0B96912986D1C884781461398761EC5
:1013100044F4007405600F98401C002E0F9016DDF9
:10132000B9F1300FEDD0B9F1780F02D0B9F1580F03
:101330000DD10F9801280AD13B46CDE90054DDE9D3
:101340001212001F029624F0F6FFC11CA7D11099BB
:1013500089453ED144F0800406E01399681CAAF147
:10136000010A44F400740860B9696D1C1298761E75
:10137000884730288146F0D02BE01099894505D167
:10138000200603D4761E44F0800418E048461EF080
:1013900027FF08B3761E0DF123018B4544F400743A
:1013A00008D2A9F130000BF8010B200607D5AAF1ED
:1013B000010003E0200602D40AF101008246A005E4
:1013C00002D51399681C0860B96912986D1C88478A
:1013D0008146002ED1DC53E0002E51DDB9F1650FBE
:1013E00002D0B9F1450F4BD1A00549D5B9696D1CA3
:1013F0001298761E24F440748847002E81460CDD36
:101400002B2804D0B9F12D0F07D144F48074B969A9
:1014100012986D1C8847761E8146E00501D52D2166
:1014200000E02B2108F8011BCDF8008021E0761E9A
:101430000DF13901884544F400740CD2A9F1300053
:1014400010F0FF0088F8000002D10099884509D902
:1014500008F1010806E0E00501D5244801E042F268
:101460000F708246B96912986D1C8847814613989F
:101470000560002E04DD48461EF0B2FE0028D6D1DD
:10148000F96912988847FF2053468BF8000088F8C6
:10149000000000200A900B9004AA0CA90AA8FFF7EC
:1014A000D5FDA00502D46FF00100F8E614F0240F7A
:1014B0000AD0E00714D13868DDE90A12031D3B6049
:1014C0000068C0E900120BE00AA968461EF026FA7F
:1014D000E00705D13868009A011D39600068026094
:1014E0002846DCE694C904008AC80400F1D8FFFF4E
:1014F000026811441378016018467047D1600549AD
:101500007944516104497944116200211161114605
:1015100000F048B9EDFFFFFF09020000426842B148
:10152000016811F8013B23B1521EC0E900121846B0
:1015300070470121C160881E704742685AB1C36874
:10154000016843B983688B4205D0491E521CC0E92B
:101550000012002070474FF0FF3070470FB4002397
:1015600000B589B00CA900910B99CB60204B7B444E
:101570000693204B7B44079304236FF00042CDE990
:1015800001321D4A7A446B4608920246002024F03C
:10159000D0FE09B05DF814FB70B506464FF0FF3081
:1015A00015460C46324686B00091CDE901016946E8
:1015B0000020049004A8FFF7D1FF034604982118E7
:1015C00025B108B10A4600E022462A6000280DD065
:1015D000002B02DD0098884208D03246081B69467D
:1015E0000094CDE9010404A8FFF7B8FF06B070BD70
:1015F000ABFFFFFFC3FFFFFF8B010000431A28BFB3
:101600009A427FF69CA9104410F0030F11441EBFAC
:1016100011F8013D521E00F8013D10F0030F7FF458
:10162000F6AF103AC0F00A8010B531E91850103A00
:1016300020E91850BFF4F9AFBDE81040530724BFAC
:1016400031E9081020E9081044BF51F8043D40F882
:10165000043D12F0030F08BF7047D20728BF31F8CE
:10166000023D48BF11F8012C28BF20F8023D48BFB9
:1016700000F8012C704700000048704764B9002052
:101680000048704744B9002030B5B0F10A024FEA73
:10169000900E71F100034EEA817EB0EB0E0061EB1B
:1016A00091014FEA101E4EEA017E10EB0E0041EB55
:1016B00011114FEA102E4EEA016E10EB0E0041EBB5
:1016C00011214FEA104E4EEA014E10EB0E0041EB95
:1016D0001141401841F100014FEAD00040EA417049
:1016E0004FEAD10110EB80054FEA810444EA90747F
:1016F00044EB01046D1944EB0404521BA3414FF069
:10170000000348BF0A3200D530BD401C41F1000142
:1017100030BD10B50446FFF7D9F90068005D00F050
:10172000010010BD2DE9F0411F4604460326016863
:10173000072A01F4006004DB08B116A505E016A530
:1017400003E008B115A500E015A521F01000206008
:10175000A069C01EA0610FB1401EA0612046FEF727
:1017600013FE4FB1D4E9012138469047206A401C4E
:101770002062C01C206206E0206AFAE7D4E9012159
:1017800015F8010B9047761EF8D22046FEF712FEA0
:10179000BDE8F0814E414E006E616E00494E46003C
:1017A000696E66002DE9F34F4FF0000A0C4656466D
:1017B0008DB001200C9001F10C000B9062690B9828
:1017C0000121904705002DD0252D2CD0216A884776
:1017D000C0B162690B9801219047216A88470028AF
:1017E000F7D16269411E0B98904700E0761CA16911
:1017F0000D988847216A88470028F7D1E1690D983C
:101800008847DBE7A1690D988847A842074601D1C0
:10181000761CD3E7E1690D9888477F1C02D1BAF1A5
:10182000000F6FD06BE162690B9800273D46394687
:1018300090472A2804D162690B980121904701251D
:10184000DFF8D08262690B9801219047A0F1300146
:101850000A290AD24745E5DC07EB870100EB41077F
:10186000303FDFD445F01005ECE7E90601D46FF016
:1018700000476C280AD04C2814D0682815D06A2854
:101880000DD074281CD07A281AD01DE062690B98FC
:10189000012190476C2802D045F0040514E045F082
:1018A00002050DE045F020050AE062690B98012170
:1018B0009047682802D045F0080505E045F400652A
:1018C00062690B9801219047C4E9015765283DD012
:1018D00019DC58287AD00CDC452837D004DC2528C0
:1018E00026D041289ED131E046282FD0472899D1D3
:1018F0002CE05B2877D0612828D063287CD064282E
:1019000023D15AE0F6E06F2848D008DC66281DD0C5
:1019100067281BD0692821D06E2816D127E07028AF
:1019200045D0732868D0752847D078280DD14DE070
:10193000A1690D988847252805463FF469AFE169FC
:101940000D9888476D1C3FF46AAFD8E00D99234687
:101950006A466FF0010024F0ECFCC5E045F0400061
:1019600023464FF000026060A80736D43EE0E80747
:101970007FF447AF2068011D21600068290501D56B
:1019800006701BE7290701D5068017E7A90703D5CD
:10199000F117C0E9006111E706600FE745F040006C
:1019A00023464FF008026060A80716D41EE040F6F8
:1019B0000E0125EA0100606016E045F04000234674
:1019C0004FF00A026060A80707D40FE045F040001E
:1019D0006060A80708D5234610220D996FF001001A
:1019E000AFF3008080E007E0102223460D996FF0EE
:1019F0000100AFF3008077E04FF0000963284F4605
:101A0000C8464B46CB4602D05B2806D038E0E806F5
:101A100001D40120A060012732E06269D4F80CB043
:101A20000B98012190475E2807D14FF001094946E4
:101A30006269D4F80CB00B989047216939B900213C
:101A40000A4603AB43F82120491C0829FADBD8B326
:101A5000216949B308F1010862690B980121904797
:101A60005D28F4D1B9F1000F09D0002003A951F885
:101A70002020D24341F82020401C0828F7DB03AB8C
:101A80002069002820794FEA40701ED05B4622462C
:101A9000CDF80080CDE901970D9900286FF0010085
:101AA00020DAAFF300801FE0C11703AA00EBD16179
:101AB0004B1121F01F0102EB8302411A1368012030
:101AC000884003431360C7E719E00D9922460028B8
:101AD0006FF00100009702DAAFF3008004E0AFF38B
:101AE000008001E0AFF3008000280ADA401C06D134
:101AF0000C9820B14FF0FF300FB0BDE8F08F50468A
:101B0000FAE7E90701D10AF1010A064400200C9026
:101B100054E60000CCCCCC0C2DE9F04781461646AB
:101B20008AB0334878440DC88DE80D0030487844B9
:101B3000801C03AC0DC884E80D0041F69B300844BE
:101B4000372190FBF1F290FBF1F5A5F1800501FB47
:101B500012041B3C02D56442012000E00020DFF8A3
:101B600090A080460027FA44AAF1BE0A0DE0E007E3
:101B700009D03246684607EB47010AEB810100F0C5
:101B800078FD8DE8070064107F1C002CEFD1184F02
:101B90007F44AC3F18E0E80714D007EB04100DF1C8
:101BA000180A90E80E008AE80E00C068F04201D1E1
:101BB00098190890324606A903A800F05AFD03AB15
:101BC00083E807006D10641C002DE4D1324669469D
:101BD000B8F1000F03A802D000F023FD01E000F0EF
:101BE00048FDC9E90001C9F808200AB0BDE8F0873E
:101BF00064BE0400007B00F080007047004870471E
:101C000044B900207546FFF7F9FFAE460500694666
:101C1000534620F00700854618B020B5FEF772FB4A
:101C2000BDE820404FF000064FF000074FF00008DD
:101C30004FF0000B21F00701AC46ACE8C009ACE85E
:101C4000C009ACE8C009ACE8C0098D467047000087
:101C50002DE9FF4F1F464FF03C0987B04FF000427F
:101C6000DDE9141001F10108DDF858A002EA405046
:101C70000390002004908346054604460590B96908
:101C8000461E08988847AAF1010A0290BAF1000F8F
:101C900037DD02982E2815D0102100F018FA002800
:101CA0002ADB4FF0010B0499014316D0B9F1000F64
:101CB0000BDB4A46C11700F0F7F905430C43A9F1C5
:101CC000040905E00120059007E008B145F0010591
:101CD00001200490059800B9361DB969089808F1EB
:101CE00001088847BBF1000FAAF1010A0290CDD08C
:101CF0000999C1F80080C9E70298702808D05028D7
:101D000006D0F96908988847BBF1000F14D04FE05E
:101D1000002002900120BBF1000F049009D0B969A6
:101D2000089808F101088847AAF10109B9F1000FE4
:101D300007DCF969089888476FF001000BB0BDE82F
:101D4000F08F2B2804D02D280CD14FF0FF300490B9
:101D5000B969089808F101088847A9F10109B9F1A2
:101D6000000FE6DD411CE4D00A2100F0B0F90028A4
:101D7000DFDB029908F1010801EB810100EB410072
:101D80000290B969089888470A2100F0A0F9099AD9
:101D9000A9F10109B9F1000FC2F8008001DD0028A6
:101DA000E7DAF969089888470499029800FB016608
:101DB00055EA040004D004F04041090002D006E0D6
:101DC000039898E0A40044EA9574AD00B61E04F0B0
:101DD0000041080002D16D196441761E159810F07B
:101DE000240F03D04FF00B095C4803E04FF02809A3
:101DF0006FF07D008246564507DAAAEB060189445A
:101E0000B9F1410F01DD4FF0410901200021A9F195
:101E1000010200F049F9024628400B4621400843E0
:101E200001D0012100E00021501E029143F1FF3159
:101E300028402140084301D0012000E00020029901
:101E4000834651EA0B014FD0002108464FF00000B5
:101E5000039900F4400039B100EB80004FF44001D9
:101E600000EBD07001EA60008015012802DD4FF020
:101E7000FF3000E013D0401C36D0029860B3BBF1B5
:101E8000000F0CD14A460120002100F00DF9284036
:101E90002140084301D0012000E00020E0B10120F2
:101EA0004A46002100F000F9034640190A46614104
:101EB0002D1A8C4111D3B9F1400F09DD159810F09E
:101EC000240F02D0AAF1340603E0AAF1170600E0BD
:101ED000761C00254FF0004406E05B1E42F1FF3205
:101EE00020EA030521EA0204CAF10100B04206DA41
:101EF0001B49039808430190002000900EE0039ACC
:101F0000C4F3D321E80A0A43164940EA44500A437D
:101F10003146CDE9000268461DF04CFD159810F0E1
:101F2000240F0BD01598C00715D13868DDE90012D1
:101F3000031D3B600068C0E900120CE002A869467E
:101F40001DF0ECFC1598C00705D13868029A011DF8
:101F50003960006802604046F0E6000002FCFFFFC6
:101F60000000F07F0000F03F2DE9FF4F92461D4634
:101F700085B04FF00041DDE9124BDDE914727F1EA0
:101F800001EA4B50414940F0FF4940EA0108002175
:101F900022F020004928049102D04E2828D04CE09D
:101FA0003BA0012607C88DE80700A9690698641CB4
:101FB00088477F1E014606D41DF8060018B121F09F
:101FC000200181420BD0E96906988847032E34D05E
:101FD000082E32D06FF0010009B0BDE8F08F761CFA
:101FE000032E01D0082EE0D1601CCAF80000DCE707
:101FF000A9690698641C88477F1E2AD420F0200017
:10200000412826D1A9690698641C88477F1E20D4E0
:1020100020F020004E281CD1A9690698641C88472E
:102020007F1E48F4002849F48009CAF8004001D412
:10203000282806D0E969069888475FEACB7012D055
:1020400022E0A9690698641C88477F1E01D40028F5
:1020500003DAE96906988847BCE72928F1D1641CAE
:10206000CAF80040E9E71BF0240F07D0286804995C
:10207000031D2B600068C0E9001805E02868021DF8
:102080002A600068C0F800902046A5E70000F07FB5
:10209000494E46494E495459000000000446AFF3EA
:1020A00000802046FEF7CDF8B2F120030AD5C2F138
:1020B000200301FA02F120FA03F300FA02F041EAE8
:1020C0000301704700FA03F14FF0000070473A280F
:1020D00000D2303820F02002412A01D3A2F137008B
:1020E000884201D34FF0FF3070475FEA400C08BFD1
:1020F00091F0000F4FEA8C234FEAC12243EA51517D
:102100004FEA1C5018BF00F5F0404FEA300018BFEE
:1021100041F000415FEA6C5C00F02980BCF1FF3FB8
:1021200008BF40F080407047130C06BF12044FF008
:10213000100C4FF0000C130E04BF12020CF1080C2F
:10214000130F04BF12010CF1040C930F04BF920093
:102150000CF1020CD30F04BF52000CF1010C11461C
:102160004FF00002A0F11F00A0EB0C00704711F02F
:10217000004F08BF704731F000413FF4D5AF0B0C62
:1021800006BF09044FF0100C4FF0000C0B0E04BFFB
:1021900009020CF1080C0B0F04BF09010CF1040C2F
:1021A0008B0F04BF89000CF1020CCB0F04BF490058
:1021B0000CF1010CCCF12003A0EB0C0022FA03F38C
:1021C00002FA0CF241EA030100F10100704720F02D
:1021D0007F4C80EA030023F07F47ACEB070303F555
:1021E0007C5300F0004003F1FF032DE980494FEAE2
:1021F000154B09B44FEA144325EA0B4E24EA034871
:102200000FF2042606EB132749083E785FEA3202F4
:1022100003FB0667C7F5000707FB06F64FEA5437CE
:102220004FEAD64606F1020607FB066CCCF1005CCD
:102230004FEA1C472CEA074C07FB06F40CFB06F59B
:1022400004EB15464FEA961634BF00204FF00040CD
:102250004FEAD13706FB07FC4FEA1C4C0CFB0BF78F
:10226000D21B03FB0CF761EB07010CFB0EF7B0EB85
:10227000074072EB17420CFB08F734BFA2EB074292
:10228000B2EB074261EB17414FEA0C444FEA91076A
:1022900006FB07FC4FEA1C4C0CFB0BF7B0EBC740EE
:1022A00072EB573203FB0CF734BFA2EBC742B2EB21
:1022B000C74261EB57310CFB0EF7B0EBC70072EB76
:1022C00057720CFB08F734BFA2EBC702B2EBC70290
:1022D00061EB5771039F4FEA816141EA921104EB70
:1022E000CC044FEAD1374FEA826206FB07FC42EA90
:1022F00090124FEA80604FEA1C4C0CFB0BF7D21B8C
:1023000003FB0CF761EB07010CFB0EF7B0EB07408A
:1023100072EB17420CFB08F734BFA2EB0742B2EB9B
:10232000074261EB17414FEA8C554FEA910704EBE6
:102330009C2406FB07FC4FEA1C4C0CFB0BF7B0EB94
:10234000C74072EB573203FB0CF734BFA2EBC74216
:10235000B2EBC74261EB57310CFB0EF7B0EBC70095
:1023600072EB57720CFB08F734BFA2EBC702B2EB5B
:10237000C70261EB577115EB4C254FEA816141EAC9
:1023800092114FEA82624FEAD13742EA901206FB7D
:1023900007FC44F100044FEA80604FEA1C4C0CFB40
:1023A0000BF7D21B03FB0CF761EB07010CFB0EF7DD
:1023B000B0EB074072EB17420CFB08F734BFA2EBFF
:1023C0000742B2EB074261EB174115EB1C154FEAD0
:1023D000813141EA92414FEA823242EA90424FEA29
:1023E00080304FEA0C7644F1000448EA03434EEA99
:1023F0000B484FF0000EB2EB080C71EB030724BF43
:10240000624639464EEB0E0E4FF0000B001852415B
:1024100049414BEB0B0BB2EB080C71EB03077BF163
:10242000000B24BF624639464EEB0E0E4FF0000BF8
:102430000018524149414BEB0B0BB2EB080C71EB0E
:1024400003077BF1000B24BF624639464EEB0E0EAC
:1024500051EA020718BF46F0010616EB0E7655F159
:10246000000254F1000103D5BDE88901BDE80088F0
:10247000BDE88901BDE80048B619524141EB0101B0
:10248000A3F10103704780807F7E7D7C7B7A797821
:10249000777676757473727171706F6E6E6D6C6C29
:1024A0006B6A6A69686867666665646463636261CB
:1024B0006160605F5F5E5E5D5D5C5C5B5B5A5A594C
:1024C00059585857575656555555545453535252B8
:1024D0005251515050504F4F4F4E4E4D4D4D4C4C10
:1024E0004C4B4B4B4A4A4A49494948484847474759
:1024F0004746464645454544444444434343434296
:10250000424242414141000046EA0646A3F570536B
:102510004FEA164646EA42564FEAD22242EA415272
:1025200010B54FEAD121A3F1010300F017F820F014
:10253000004000F1010C00F0004701EB0050114693
:10254000BCF5006F40EA070000D210BD02484FF012
:10255000000140EA070010BD0000F07F002B26D4E8
:10256000770021D01CB54FEA370703B44FF01000B5
:102570004FF010014FF000000FBCBDE810400BF110
:10258000010BBBF1010F08BF5FEA170722BF12F171
:10259000010211F101014FF0004143F1000300F08D
:1025A000004043EA00007047F9D35708DAE746EAEB
:1025B000064613F1400F4FEA16461FDD13F1200FB8
:1025C000DFBF16430A46002120335B42C8D0C3F167
:1025D000200746EA064602FA07F74FEA164646EA99
:1025E0000706C3F1200722FA03F201FA07F721FADE
:1025F00003F14FF0000342EA0702B1E746EA0206A0
:1026000046EA06464FEA164646EA0106BCBF46EAD7
:102610000646360C4FF000034FF000024FF0000169
:102620009EE72DE9C048934630B491E8380007C8CA
:1026300031EA400C48BF34EA430C03D5FFF7C7FD2D
:10264000FFF78CFFF0BCBDE800882DE9C048934639
:1026500030B491E8380007C831EA400C48BF34EA8A
:10266000430C03D5FFF7B3FDFFF74EFFF0BCBDE809
:1026700000882DE9C048934630B491E8380007C877
:1026800010F0804F08BF13F0804F03D100F019F80D
:10269000FFF764FFF0BCBDE800882DE9C048934611
:1026A00030B491E8380007C810F0804F08BF13F02D
:1026B000804F03D100F005F8FFF726FFF0BCBDE81E
:1026C000008820F07F4780EA030023F07F4C07EB6F
:1026D0000C03A3F57C5300F00040A3F1FE0392F03D
:1026E000000F00F0B38095F0000F00F077802DE927
:1026F00001494FEA11404FEA144621EA004800FB25
:1027000006FC24EA064708FB06F607FB08F800FB70
:1027100007F718EB06484CEB164C4FEA124B18EB38
:1027200007484FEA15464CEB174022EA0B4E0BFBCD
:1027300006FC25EA06470EFB06F607FB0EFE0BFB22
:1027400007F71EEB064E4CEB164C4FF000061EEB47
:10275000074E4CEB174B18EB0B0840F1000018EB41
:102760000E0B58EB000840F100008F1A4FF00001EB
:102770003CBFC943661B14BFB5EB040C00213CBF32
:10278000C943F61B4FEA17444EEA8E0E27EA04456A
:102790004FEA1C4704FB07622CEA074C05FB07F7CE
:1027A0000CFB05F604FB0CFC16EB074642EB17424C
:1027B00016EB0C4642EB1C421BEB060658EB0202E2
:1027C000414146EA9E0601D5BDE80189B61952414C
:1027D00041EB0101A3F10103BDE801894FEA144572
:1027E0004FEA114724EA054621EA074C05FB07F4A6
:1027F00006FB07F70CFB06F105FB0CFC11EB074190
:1028000044EB17444FEA124711EB0C4144EB1C44D4
:1028100022EA074C05FB07F206FB07F70CFB06F65E
:1028200005FB0CFC16EB074642EB174216EB0C4679
:1028300042EB1C456A1854F1000148BF7047B619B5
:10284000524141EB0101A3F10103704795F0000FE4
:1028500037D04FEA11424FEA144721EA024624EAF0
:10286000074C02FB07F106FB07F70CFB06F402FB23
:102870000CFC14EB074441EB17414FEA154714EBEE
:102880000C4441EB1C4125EA074C02FB07F506FB13
:1028900007F70CFB06F602FB0CFC16EB074645EBB4
:1028A000174516EB0C4645EB1C42121951F100017D
:1028B00048BF7047B619524141EB0101A3F1010332
:1028C00070474FEA14454FEA114724EA054621EACA
:1028D000074C05FB07F106FB07F70CFB06F24FF070
:1028E000000605FB0CFC12EB074241EB174112EB13
:1028F0000C4251EB1C4148BF7047921841EB01015B
:10290000A3F10103704707F013B970B515460E46E1
:10291000044608E02046641CA4B200F007F86D1ECF
:1029200006F8010BADB2002DF4D170BD10B5044610
:1029300007F0A2F9200AA02101EB4000C0B207F085
:1029400067F907F0DBF9E0B207F062F907F0D6F9B2
:1029500007F092F9A12007F05BF907F0CFF900200A
:1029600007F020F9044607F0A7F9204610BD70B51E
:1029700014460D46064606E02978304600F007F872
:10298000761CB6B26D1C641EA4B2F5D270BD70B5D3
:102990000D46044607F070F9200AA02101EB400023
:1029A000C0B207F035F907F0A9F9E0B207F030F945
:1029B00007F0A4F9284607F02BF907F09FF907F074
:1029C0007BF9BDE870400A201EF07EB9002800DCCB
:1029D000404270471CB50021009103460191034A13
:1029E0000321034802F044FC1CBD0000D1FB010898
:1029F000447C02081CB50021009103460191034A62
:102A00000A21034802F034FC1CBD0000CDFC010883
:102A1000987C02081CB50021009103460191034AED
:102A20000321034802F024FC1CBD0000F101020850
:102A3000ECAB040838B545680446014628460EF05C
:102A40005FFF00282BD02068304A11280DD006DC0B
:102A50000B2825D00E2833D00F2852D112E0282879
:102A600049D0B0F5107F4CD108E09268002A16D00A
:102A70002146284601B0BDE830401047214628468F
:102A80005268F7E7284602F029F90090406E046882
:102A9000684602F08DF9002C01D02846A04738BDC9
:102AA000284602F01BF90090683002F06DF800989B
:102AB00003216C3002F076F8684602F079F920E0E4
:102AC000E168486809680D2902D0202913D105E082
:102AD000002810DD284619F0D9FD06E0002804DDA5
:102AE0002846BDE8384019F0D1BD2846BDE8384039
:102AF000022119F0E1BDE06818B90021284600F074
:102B0000ACF92046BDE838400FF0FABA8402002044
:102B1000F0B5044685B08069B4F90850668A00278C
:102B2000CDE90265CDE900170490B4F90C00B4F9C1
:102B30001060C118B4F90A00B4F90E5010443346BD
:102B40002A4600F007F80546616800F08FF905B0E5
:102B50002846F0BD2DE9F04F85B01F46DDE911B4E0
:102B6000DDE90E5690468946824603F0DFFC1648A2
:102B70004C34CDE90204CDE900563B464246494675
:102B800050460FF005FA040018D002F0A7F8102202
:102B9000594604900EF0F4FF049830220B4934306B
:102BA000FDF7CDFE094D04990C3D2868486604A840
:102BB00002F0FEF8286841682046884705F06AFA66
:102BC00005B02046BDE8F08F352A000890020020AD
:102BD000F0B5044680688B4989B051F82050606890
:102BE00000287DD0052804D006287AD0122879D173
:102BF000AEE0E86900284FD095E80E008DE80F00A0
:102C000004F110010FC905F059FE002655F8260001
:102C100004F03DFBA169E8690A1A21690144606971
:102C2000304402F0FDFEA169E8690A1A21690144F5
:102C3000E069801B02F0F4FEE169E8690A1A616943
:102C400001442069304402F0C1FFE169E8690A1AD1
:102C500061690144A069801B02F0B8FF761C022E56
:102C6000D4DBA86804F013FBE069E9696669431ADC
:102C7000206942183144801C521E03F003F8E169B8
:102C8000E869A2690B1A61690144101A401C921E7E
:102C900002F0F8FFEE6913E05FF0000655F8260039
:102CA00004F0F5FAE069831BA069821B6069811951
:102CB0002069304402F02AFF761C022EEEDB022649
:102CC000D5E90301CDE900016169E06908444310D9
:102CD000A069891C821B2069304402F065FE02E075
:102CE00089E012E08AE0D5E90501CDE90001E36958
:102CF00060690121184401EB6001A0699B1E821BE1
:102D00002069304402F050FE78E0206801F0E6FFD0
:102D10000490206810F05CFD40B1A06808B100206C
:102D200008E00498006F28B1012003E00498406F88
:102D300000B10220049901EB8000C56E04A802F0E6
:102D400037F800231A462846216802F0B1FB55E007
:102D5000206801F0C3FF0490866EEEB3B0F95C709A
:102D6000A168D1B3032942D05FF0000100EB8101DB
:102D7000406D0C6C04F0BAFA204604F088FA05A8FD
:102D800003F042F8BDF81410A88B0144ADF81410FC
:102D9000BDF81810081AADF81800BDF81600801C10
:102DA000ADF81600BDF81A00801EADF81A000498A0
:102DB000B0F96020B0F95E1005A804F07CF804A812
:102DC00001F0F6FF022004F01BFB304601F086FF05
:102DD0003A4605A9079001E00BE006E002F06CFC22
:102DE0000DF11C0001F0E4FF08E00121BEE7022123
:102DF000BCE704A8F6E7206810F03EF909B000200F
:102E0000F0BD0000F4CE040838B505004FF0000412
:102E10000DD003F08BFB284601F060FF0090408E40
:102E2000C0F30024684601F0C3FF05F033F92046E3
:102E300038BD38B50D4604000ED003F077FB2046B0
:102E400001F04CFF00904565684601F0B1FF204657
:102E50000FF08EFE05F01EF938BD4FF48072002988
:102E6000114601D00EF0E0BD0EF02BBD2DE9FF4163
:102E70000E4605004FF0010421D003F057FB284611
:102E800001F02CFF0190876E01A8009701F090FFE0
:102E90003146684606F06EF878B100980024B842D2
:102EA00008D0284601F01AFF01900099816601A818
:102EB00001F07EFF28460FF05BFE05F0EBF804B052
:102EC0002046BDE8F081000010B50022022101205B
:102ED00021F00CFA0449086020B104A0BDE81040BC
:102EE000FDF730BA08A0F9E704000020B5E7BBFA07
:102EF00031BFD8D6C6CFFBCFA2B6D3C1D0B4B4BDF4
:102F0000A8B3C9B9A6000000B5E7BBFA31BFD8D64F
:102F1000C6CFFBCFA2B6D3C1D0B4B4BDA8CAA7B0A8
:102F2000DC00000010B501210022084621F0DEF986
:102F30000449086020B104A0BDE81040FDF702BAC2
:102F400008A0F9E7080000204265646C696D6974A7
:102F500031CFFBCFA2B6D3C1D0B4B4BDA8B3C9B9E9
:102F6000A60000004265646C696D697431CFFBCFC7
:102F7000A2B6D3C1D0B4B4BDA8CAA7B0DC000000CB
:102F800010B500220421012021F0B0F904490860A5
:102F900020B104A0BDE81040FDF7D4B909A0F9E7BD
:102FA000140000204265647370656564315F51757B
:102FB000657565CFFBCFA2B6D3C1D0B4B4BDA8B3FD
:102FC000C9B9A6004265647370656564315F517567
:102FD000657565CFFBCFA2B6D3C1D0B4B4BDA8CAC6
:102FE000A7B0DC0010B503220021012021F07EF9FA
:102FF0000B49032208600021012021F077F90949DB
:10300000032208600021012021F070F90649032203
:1030100008600021012021F069F90449086010BD11
:10302000180000201C000020500000205400002048
:10303000FEE7000070B50F4C0025C4F884510E481F
:10304000016821F0F0010160016841F03001016088
:10305000052004F5C2741DF053FE0848C0F8A451C1
:1030600005201DF04DFE0120206005201DF048FECA
:10307000256070BD00802142041C01400080234275
:103080001348816941F008018161816941F0800143
:1030900081611048016821F0F0010160016841F090
:1030A000300101600C48016821F0F0010160016805
:1030B00041F03001016007480C30016841F0020125
:1030C000016005480830016841F4007101607047F3
:1030D00000100240000C0140041C014070B50F4C70
:1030E0000026C4F884610E48016821F0F0010160F7
:1030F000016841F030010160052004F5C2741DF043
:10310000FFFD08480125C0F8A45105201DF0F8FD79
:10311000256005201DF0F4FD266070BD0080214271
:10312000041C0140008023422DE9F04782461848E4
:103130000024016821F0F0010160016841F0800184
:1031400001601E201DF0DCFD0025124EDFF84890C6
:103150002F464FF00108C6F8847105201DF0D0FD00
:10316000C6F884816006040ED9F8240108B1641CF5
:10317000E4B26D1CEDB2082DEDD3BAF1000F04D00E
:10318000FFF758FF2046BDE8F087FFF7A7FFF9E7F4
:10319000041C014000802142008023422DE9F047B9
:1031A00005461548016821F0F0010160016841F011
:1031B00030010160114E0027C6F8847105201DF012
:1031C0009FFDDFF83C8000244FF00109E909C8F8B1
:1031D000A4116806050EC6F8849105201DF090FD27
:1031E000C6F8847105201DF08BFD641CE4B2082C28
:1031F000ECD3BDE8F0870000041C014000802142B0
:103200000080234270B50F48016821F0F001016091
:10321000016841F0300101600B4E0120C6F8A401A5
:103220000A4DC5F884011E2005F5C27506F5D27653
:103230001DF066FD0024346005201DF061FD2C604A
:1032400070BD0000041C0140008023420080214228
:1032500070B50D48016821F0F0010160016841F08E
:103260003001016009480125C0F884511E201DF07D
:1032700047FD074C0020C4F8A401052004F5D274D2
:103280001DF03EFD256070BD041C01400080214200
:103290000080234270B512480024016821F0F0013B
:1032A0000160016841F0800101600E4D0120C5F808
:1032B000A4010D4EC6F8840107E0641CE4B2FA2CA8
:1032C00003D9FFF7C5FF012070BD05201DF018FDD3
:1032D000D5F824010028F0D1C6F8840170BD0000A3
:1032E000041C014000802342008021420348002248
:1032F00002604260472131200DF0F4BAB000002096
:1033000008B50121042009F05DFD6020ADF8000042
:1033100028208DF803006946014800F005FF08BD2C
:103320000008014038B50121102009F04BFD0F20A5
:10333000ADF8000010208DF803000320054C8DF837
:1033400002006946204600F0EFFE0F21204600F003
:103350006CFF38BD0010014010B50A4C4FF400104E
:1033600000F030F84FF4000000F02CF80021204667
:1033700000F034F8611561602046BDE8104001217D
:1033800000F02CB86C00024010B54FF0007000F057
:1033900019F84FF0006000F015F8BDE8104000216A
:1033A000014800F01BB8000080000240C10002D5B7
:1033B00002490860704702494860704704040240AF
:1033C00000000240C10002D502490860704702496E
:1033D0004860704704040240000002400029016870
:1033E00002D041F0010102E04FF6FE72114001608F
:1033F0007047000001684FF6FE7211400160002125
:10340000016041608160C1603149314A08399042B0
:1034100003D1486840F00F0006E02D4A1432904274
:1034200004D1486840F0F00048607047284A2832CC
:10343000904203D1486840F47060F5E7244A3C327A
:10344000904203D1486840F47040EDE7204A503282
:10345000904203D1486840F47020E5E71C4A64328A
:10346000904203D1486840F47000DDE7184A783292
:10347000904203D1486840F07060D5E7154A111FAB
:10348000904203D1086840F00F0006E0114A143260
:10349000904204D1086840F0F000086070470D4A7F
:1034A0002832904203D1086840F47060F5E7094A79
:1034B0003C32904203D1086840F47040EDE7054A81
:1034C00050329042EAD1086840F47020E5E70000ED
:1034D0000800024008040240406880B27047002A99
:1034E000026801D00A4300E08A430260704730B5A9
:1034F000026847F6F0739A430C6A8B682343D1E95C
:1035000004452C4323438C692343CC6923434C6AF1
:1035100023438C6A234313430360CA6842600A68EA
:1035200082604968C16030BD416070472DE9F0415B
:1035300001218CB0084609F02DFCDFF8A48040463C
:10354000FFF758FF2848274ECDE9006000241020DF
:1035500047010794CDE902078025CDE90445000223
:10356000CDE908400694694640460A94FFF7BFFF3C
:10357000012202214046FFF7B2FF01220821404606
:10358000FFF7ADFF01214046FFF728FF002140462D
:10359000FFF724FFDFF84880A8F114084046FFF742
:1035A00029FF124801A9009681E89100CDE9044560
:1035B000A801CDE9084006940794694640460A945C
:1035C000FFF795FF012202214046FFF788FF012205
:1035D00008214046FFF783FF0CB0BDE8F0810000F2
:1035E0008000024004440040080700200809002031
:1035F000704700008000A0F1C0400029016802D09F
:1036000041F0010101E0024A1140016070470000F1
:10361000FEFF0F0010B5D0E901121143D0E90323DA
:103620001A4311434269114382691143C26911432C
:10363000026A1143426A1143826A1143C26A11430A
:10364000026B114302689200A2F1C04211608168CE
:10365000082907D101688900A1F1C0410A6842F038
:1036600040020A60416BD1E9002342EA03128B68F1
:103670008C891B0243EA04431A430B8A42EA035231
:103680000B7D896942EA03620A4301688900A1F15E
:10369000C0414A60C16AB1F5804F08D000686FF040
:1036A00070418000A0F1C040C0F8041110BD816BD2
:1036B000D1E9002342EA03128B680C8A1B0243EA19
:1036C00004531A430B7D896942EA036200680A4386
:1036D0008000A0F1C040C0F8042110BD3A48416903
:1036E00041F480714161816941F02001816181690A
:1036F00041F040018161816941F08001816181690E
:1037000041F48071816131480168002101600268E3
:1037100042F0BB320260001F026802F0FF2202602A
:10372000026842F0BB120260294802680160026828
:1037300042F0BB320260001F0268264B1A40026052
:103740000268254B1A4302602448026892B2026064
:103750000268234B1A430260001F026802F07F4296
:10376000026003681F4A134303601F48436823F441
:1037700070634360436843F430634360036803F05D
:103780007F4303600368134303604FF020400161EF
:103790004161C0F81411016941F48051016101696E
:1037A00041F010010161416941F440714161416999
:1037B0004161416941616FF07041C0F814110169C4
:1037C00041F0010101617047001002400414014002
:1037D0000418014000FFFF0FBB0000B0041C0140B3
:1037E0000000BBBBBBBBBB000020014038B52B4871
:1037F000816941F0800181612948016821F47F419C
:103800000160016841F46051016025480830016899
:1038100041F440610160FFF733FC224D0024C5F8FC
:10382000AC41142005F5D6751DF04EFA0120286034
:1038300032201DF049FA8DF800400122694600202F
:1038400000F0FEF801226946A42000F0F9F81620E5
:103850008DF8000001226946802000F0F1F80C206C
:103860008DF8000001226946882000F0E9F8022264
:103870006946A12000F01EF89DF80000302803D111
:103880009DF80100032801D0012038BD43F2030157
:1038900005A0FCF757FD002038BD000000100240D5
:1038A000041C0140008023424354502049443A25DF
:1038B000780D0A002DE9F04115460F460446FFF742
:1038C000A1FC7020FFF76AFCFFF7E4FCE0B2FFF711
:1038D00065FCFFF7DFFCFFF795FC7120FFF75EFC4E
:1038E000FFF7D8FC00246E1E09E0B44201D001208D
:1038F00000E00020FFF718FC3855641CE4B2AC422D
:10390000F3D3BDE8F041FFF7A3BC00002DE9F1437C
:10391000484F00244FF00A09387882B0401CC0B2EA
:10392000B0FBF9F209FB1201434DA046387009B112
:103930000A2863D2012202A90220FFF7BBFF9DF8EB
:10394000080001075AD000F00F00062856D2FF21C8
:103950008140C84340F0C00085F820004FF00108C6
:10396000002695F8201008FA04F0014239D03348B7
:103970000422694630F81400FFF79CFF95F83000E8
:103980009DF80010C0079DF8010001F00F010ED056
:1039900000EB012105EB4400C1829DF802209DF857
:1039A000031002F00F0201EB022181810FE000EB16
:1039B0000120C0F5F07105EB440081819DF80220E3
:1039C0009DF8031002F00F0201EB0221C1829DF865
:1039D00000000821B1EB101F03D005EB4400C682A4
:1039E0008681641CE4B2052CBBD3A9894FF0010881
:1039F00019B9E88A08B98DF808603E709DF808008A
:103A0000C0060ED195F82000010602D520F08000F6
:103A100005E04FF6FF71A981E98200F0E00085F82A
:103A200020003878F02801D987F800904046BDE89A
:103A3000FE830000720000207C0000202E7B020824
:103A40002DE9F04115460E4604460027FFF7DAFB44
:103A50007020FFF7A3FBFFF71DFCE0B2FFF79EFB12
:103A6000FFF718FC002408E0305DFFF797FBFFF735
:103A700011FC070003D1641CE4B2AC42F4D3FFF79D
:103A8000E7FB3846BDE8F0812DE9F0430446C56800
:103A900087B090468946002003F01CFC064625B1FD
:103AA000287910B146F0020001E026F0020003F090
:103AB00011FC2069012558B1D4E902128DE82600D5
:103AC000039563882288046841464846A0471EE063
:103AD000124F134B214638681B68427CE0689847B8
:103AE00030B9E088012801D0002001E03868806BFF
:103AF000A288E388A1680095CDE90410CDE90232DF
:103B00000195638822884146484606F0F3FA07B0DB
:103B10003046BDE8F04303F0DDBB0000EC010020BF
:103B2000E40100201CB50024019401AC009400F0D5
:103B3000E7F81CBD2DE9FF4F83B0814606988A4601
:103B4000A0EB0A08109E00200090A2EB0904356843
:103B5000934654EA080018D02046FEF737FF074680
:103B60004046FEF733FF87420BDA20464446804644
:103B70004846D14682465846DDF818B006900120E6
:103B80000090002C07DD204606E007B04846BDE85F
:103B9000F04F00F03BB96042A0420AD04846D946F7
:103BA0006442C8F1000883464FF0FF37DDF818A0E3
:103BB00000E001275148B8F1000F11D004EBD47197
:103BC0004FEA610B01DACBF1000B4C480068807EB4
:103BD00088B3002F02DA30682044306000257BE093
:103BE00000990029016821D0897E11B10027804603
:103BF00015E007B05A4649465046BDE8F04F06F07A
:103C000035BC28466D1C1AF0B9F938B9D8F800004F
:103C100009EB0701406E4268504690477F1CA7425F
:103C2000EFDD6D1E356007B0BDE8F08F8A7E1AB1FA
:103C30000027804617E019E0486E5A46514603684F
:103C400007B04846BDE8F04F184728466D1C1AF0EB
:103C500095F938B9D8F8001009EB0700496E4A68A1
:103C6000514690477F1CA742EFDDDAE700250FE0C1
:103C700008FB05B090FBF4F101EB0A00009951B18B
:103C80001E4A09EB05011268526E526890476D1C7E
:103C9000A542EDDDC7E7194909EB05030968496E3F
:103CA0004A6801461846F1E708FB05B090FBF4F1BD
:103CB00001EB0A0001903068384430601AF05EF978
:103CC00048B9009890B10D4809EB05010068406EB5
:103CD0004268019890476D1CA542E5DD3068002FD1
:103CE00001DA20443060C01B30609CE7034909EBD7
:103CF00005000968496E4A680199EBE7EC0100206C
:103D00002DE9FF470F4640491646804609680C9842
:103D10001D460A7E012A1CD0A8EB0600791B50EA3A
:103D200001031CD0A2F101091BF050FE00F58060D8
:103D3000824605F00EFA00FB09F4504605F00EFA33
:103D400000FB09F1002C0CDAC4F50070801240422F
:103D50000AE00090324639464046FFF7EBFEBDE8E8
:103D6000FF8704F50074A012002904DAC1F5007180
:103D700089124C4202E001F500718C12002804DD2A
:103D8000411C01EBD171491003E000EBD0714910E7
:103D9000401E00EBD0704210002C04DD601C00EBD4
:103DA000D070401003E004EBD4704010641E04EBAC
:103DB000D47308EB0104ADF800403C18ADF80240A4
:103DC000A8EB02045B10B21AADF80440ADF808206D
:103DD0003144FC1AEA1AADF80C102844ADF80A2058
:103DE000ADF80E000023ADF806401A4604216846DF
:103DF00000F08CF83946404615F008F9294630465F
:103E000015F004F9ABE70000EC010020064A136846
:103E10001A7E012A05D0521E02EBD272521000F017
:103E200005B85A6E52681047EC0100202DE9F05F8A
:103E30000646884640F2C32002FB00F14FF47A7038
:103E400091FBF0F702FB02F102EBD27001EB600B89
:103E50001446B118234A301B7F1C1268526E136837
:103E60000A4641469847012538E000BF05FB05F0AA
:103E700004FB040159451CDDBC4219DD194B06EB5E
:103E8000050AA6EB05091B68AAF1010208EB04016B
:103E90005B6E09F101001B689847124BAAF1010201
:103EA000A8EB04011B6809F101005B6E1B689847D1
:103EB000641E0C4B3219301B1B68924608EB05013F
:103EC0005B6E81461B689847064B5246A8EB05017E
:103ED0001B6848465B6E1B6898476D1CBD42C5DD7C
:103EE000BDE8F09FEC01002070B514460E46054673
:103EF0000119001B00F0C4FD22463146284615F08A
:103F00000BFEBDE8704000F00FBD00002DE9FF4F33
:103F100043F6FF740F46664283B09B4681460021FC
:103F20000BE000BF09EB8100B0F90200A04200DA0B
:103F30000446B04200DD0646491CB942F2DB674840
:103F40000068406900280DD0B0F906101A46A1EBB0
:103F50000B01B14200DA0E46B0F90200801AA0420D
:103F600000DD0446B4E0DFF878A100200546CAF879
:103F7000000088E0781E854201DA6B1C00E0002317
:103F800009EB850C09EB8302BCF90200B2F90210BF
:103F9000A04244D1A14215D139F92330059A39F90B
:103FA000251003EB020C4D4A05981268084404EBF7
:103FB0000B01526E6045136801DA62462AE0024640
:103FC000604627E02846A4464FF000087A1E0BE022
:103FD00008B1401E00E0781E09EB8003B3F90230FF
:103FE000634504D108F101089045F1DB2346A34263
:103FF00048D01A1B39F92500A1EB040C059B92EA65
:104000000C0F09D4354A184404EB0B011268526EA8
:1040100013680246984735E00FF0CAFE32E0A1422D
:1040200030D001DBA04203DDA0422BDBA14229DC22
:10403000E04688420ADC0346A04223DC0846A1424F
:1040400020DBB8F900C0B2F9001008E00B46A1422D
:1040500018DCA04216DBB2F900C0B8F90010E21A71
:10406000A1EB0C0151430029A0EB030202DD01EB9F
:10407000620102E0A1EB6201491CC01A91FBF0F061
:104080006044C9E76D1CBD42FFF674AF059800900F
:1040900004EB0B00019000208046054613E0114917
:1040A000B8F1000F31F915A009D0009901EB0A020F
:1040B00008440A490968496E0B680199984788F0D5
:1040C000010850466D1C064909688D42E7DB641CF7
:1040D000B4427FF748AF07B0BDE8F08FEC01002095
:1040E000740600202CB9002010B5002003F0C4F89D
:1040F0006FF07F4003F0CBF8012003F063F900205C
:1041000003F06EF9002003F07BF9002003F0E2F8E1
:104110000448006803F0EAF8BDE81040002003F00E
:1041200023B90000E8010020F0B5CC78002204F0AB
:104130000F03E40601D58C7823430C784FF00F0C65
:1041400014F0FF0F4FF0010E1BD005680E880EFA19
:1041500002F42640A64210D196000CFA06F725EA92
:10416000070703FA06F5CE783D43282E02D0482EE5
:1041700002D002E0446100E00461521C082AE5D349
:1041800005600A88FF2A1CD94468002202F108064B
:104190000EFA06F50E882E40AE420ED196000CFAAD
:1041A00006F7BC4303FA06F7CE783C43282E00D12D
:1041B0004561CE78482E00D10561521C082AE5D30E
:1041C0004460F0BDF0B5144C002801DAE36900E06A
:1041D0006368450D2E0185B2C0F30157B540C0F3A9
:1041E0000342032F05D0C6020AD503269640B343E7
:1041F00007E023F07062636823F07063636002E09D
:10420000AB4343F0706201B12A43002801DAE26156
:10421000F0BD6260F0BD00000000014002460020D9
:1042200092680A4200D00120704701617047000087
:104230002DE9FC413548816941F080018161344CB0
:10424000206820F47F402060206840F460502060A7
:104250002F4D0835286840F440602860FEF710FFB5
:104260002C4F0026C7F8AC610A2007F5D6771CF062
:104270002BFD012038600A201CF026FD206820F468
:1042800070602060206840F400602060286820F49E
:104290008060286064201CF017FD0422694648F203
:1042A000401000F04DF88DF8046069461AA0FCF744
:1042B00049F81CA16846FCF7C5FB10B10120BDE818
:1042C000FC8102208DF8000048F24004012269467A
:1042D000204600F04BF901226946E01D00F030F85D
:1042E0009DF80010602905D210A0FCF72BF80120E2
:1042F00000F016F90A201CF0E7FC8DF8006001229E
:104300006946204600F032F90020D8E7001002404C
:10431000041C0140008023424354502049443A2564
:10432000730D0A00393134370000000044656661BE
:10433000756C74205665723A25640D0A0000000001
:104340002DE9F04115460F460446FEF75BFF282095
:10435000FEF724FFFEF79EFF200AFEF71FFFFEF781
:1043600099FFE0B2FEF71AFFFEF794FFFEF74AFF4F
:104370002920FEF713FFFEF78DFF00246E1E09E0D3
:10438000B44201D0012000E00020FEF7CDFE3855F8
:10439000641CE4B2AC42F3D3BDE8F041FEF758BF71
:1043A0002DE9F1475A4D00244FF00A0A287883B0CE
:1043B000401CC0B2B0FBFAF20AFB1201554EA046F7
:1043C000287009B10A2879D248F24E19012203A9AE
:1043D0004846FFF7B5FF9DF80C004FF000070106B7
:1043E00003D500F00F01062901D3800606D58DF80C
:1043F0000470012201A9484600F0B8F89DF80C00AD
:1044000001075BD000F00F01062957D2FF2088403A
:104410008DF80400C04396F8209040F0C00086F864
:104420002000B089B082F08AF0834FF0010896F83E
:10443000201008FA04F0014225D0374804226946CA
:1044400030F81400FFF77CFF96F830009DF801105B
:10445000C0079DF8000000EB012106EB44000AD0E4
:10446000C1829DF802109DF8032001EB0221C1F5E5
:104470004871818107E081819DF802109DF8032039
:1044800001EB0221C182641CE4B2052CCFD3234985
:10449000B2894FF001080B8830469A4203D8C28A8D
:1044A00049888A4209D99DF80C1001F00F010129B1
:1044B0000BD9C1898181018BF1822F709DF80C008D
:1044C00000F08F0080280AD018E0818A8181C18B9A
:1044D000C18280218DF80C1086F82090EEE796F8C6
:1044E0002000010602D520F0800005E04FF6FF71A4
:1044F000B181F18200F0E00086F820002878F028F1
:1045000001D985F800A004B04046BDE8F08700005E
:10451000730000207C000020F07B0208F8060020D9
:1045200008B500218DF800108DF801000E489DF8A7
:104530000020435C491C1A44C9B28DF80020B829F8
:10454000F5D3D0B2C043401C8DF80000B822064914
:1045500048F2470000F00AF80222694648F2FF00DC
:1045600000F004F8002008BD387B02082DE9F04176
:1045700015460E4604460027FEF744FE2820FEF7A7
:104580000DFEFEF787FE200AFEF708FEFEF782FE0C
:10459000E0B2FEF703FEFEF77DFE002408E0305D8A
:1045A000FEF7FCFDFEF776FE070003D1641CE4B2C3
:1045B000AC42F4D3FEF74CFE3846BDE8F081000073
:1045C0002DE9F04FDFF828B191B04FF0FF35DBF85F
:1045D0000030B3F922100691DE69B3F924A0F46922
:1045E000A189814206D8E289824203D3471AD4F8CE
:1045F000008012E0D4E90181002970D00A8882424B
:104600006DD84D8885426AD3801A82B2486800EB23
:104610008200B0F90070B0F90250781C5FD0307E93
:10462000A27C014600FB02F9207CCDE90710B3F91A
:104630002A60304606F074FDC0B20E90DBF8001020
:1046400007FB0980A37C8A6B0127CDE90402CDE931
:104650000273C869089AC17E807ECDE90001DDE958
:104660000603514605F046FD681C18D046F00200CE
:1046700006F056FDDBF80000A37C05FB0981826B88
:10468000CDE90273CDE90412C069089AC17E807E2B
:10469000CDE90001DDE90603514605F02BFDDBF80D
:1046A00000005D46C069417E007E814214D9022E21
:1046B00012D086F0040006F033FD2868C069027E3F
:1046C000C37E857E02FB03A1437E089A069853446D
:1046D00002FB050206F020F80E9806F021FDDBF83B
:1046E0000000627C418C1144418411B0BDE8F08F20
:1046F000EC01002004480068C069C06909B1027C6F
:104700000A60407C70470000EC0100200220088015
:104710007047C06982898A4202D8C2898A4210D20F
:10472000806880B102888A420DD843888B420AD3C0
:10473000406800EB8100A0EB8200B0F90000002887
:1047400001DB012070470020704700002DE9F04395
:104750002F4C034687B020681946B0F92A80C069FB
:10476000C06900F082F800284ED041680088181A0D
:1047700001EBC0054046AE7806F0D2FC81462068C9
:104780006A680123816BCDE90236CDE90421C16954
:10479000CB7E8A7ECDE900230B7EB0F924102A78E7
:1047A000B0F9220005F0A6FC2068C069477E067EAD
:1047B000B7421DD9C07E47434643B8F1020F17D018
:1047C00001F027FB804601F0EDFA02F060FD216860
:1047D0002A78CB69B1F92200B1F92410DB7E02FB03
:1047E0000302CB19314405F097FF404602F04FFD1C
:1047F000484606F095FC20686A78C369B0F9221033
:104800009B7E02FB0311418407B0BDE8F0830000EA
:10481000EC01002030B50E4C05460B4620682946B9
:10482000C069C06900F021F8002810D041680088F4
:1048300024682A1A0120E46900EBC200085CA47E07
:104840006043002B03D011F832106143196030BD72
:10485000EC01002001200880704700B5C06900F01D
:1048600004F8002800D0012000BD06E002888A423A
:1048700002D842888A4202D280680028F6D1704766
:104880002DE9F0410025154E154C18E02069C5EBC7
:10489000051700EBC7007022001D3168FCF74FF8C8
:1048A0002069002140F8371000EBC70000F10C012F
:1048B0008161011D0A1DC0E90F126D1C4164A068D1
:1048C0008542E3DB16F060FD2169C0EB001001EBCF
:1048D000C000001D3060BDE8F0810000EC01002048
:1048E0006C04002070B50F490D480860084604F0BC
:1048F00039FB0C4C143CA068C0EB0010C5002846E6
:1049000000F05EF92A460021206104F0A4FB4FF07C
:10491000FF30206003F012FCBDE8704016F034BD9B
:10492000FDC701088004002010B515F0DDFC044827
:10493000016A04480068416600F10801416110BD48
:10494000BC030020EC0100207CB514460D46064651
:1049500001F0ECFD0EF070FD06440EF07BFD054409
:104960001648006890F8691021B990F868104E4315
:104970004D434C43301B00F023F8ADF800003019D4
:1049800000F01EF8ADF80400281B00F019F8ADF88F
:104990000200281900F014F8ADF8060068460EF081
:1049A000A3FD06E0224629463046FFF79DFA0EF0A9
:1049B00023FD0028F6D103F06DFB7CBDEC01002047
:1049C0000449096891F8681009B190FBF1F000B250
:1049D00070470000EC0100202DE9F041224C054613
:1049E0000E462068002788B920480068E06110B9A9
:1049F00005F04FFFE06100F0E3F8206080B31A4952
:104A00001B4824310860084604F0ACFA19480068D5
:104A1000854200DA0546E169731B4A1E204693422F
:104A200001DD6E18761EAE4201DA2E460127124CC9
:104A30002268516E4B68836301620B490F4B34311E
:104A40000B60516602C880E862000FF09DFD0FF018
:104A5000BDFB054821682C3048613846BDE8F0812F
:104A6000FFE70127D2E70000BC0300201C02002062
:104A700089C7010820020020EC010020CD8C01082C
:104A8000044A126892F8682090FBF2F091FBF2F170
:104A9000FFF7A2BFEC010020F8B50C0005460FD0CF
:104AA00001F044FD204600F017F8060010D000F099
:104AB00015F9224600902DB12946FBF7B9FE04E016
:104AC0000020F8BD002104F0C6FA684600F070F935
:104AD00003F0E0FA3046F8BD10B5040009D001F04B
:104AE00025FD20460FF08AFA044603F0D3FA20464B
:104AF00010BD002010BD38B5054601F017FD284651
:104B0000FFF7EAFF040009D000F0E8F82A46002188
:104B1000009004F0A0FA684600F04AF903F0BAFAEF
:104B2000204638BD024A106021F0030050607047F3
:104B300040B7002010B5040016D001F0F7FC0B4878
:104B4000406B10F8341059B1022909D2042101EB4D
:104B5000C401415848680FF047F9204618F05AFF41
:104B6000BDE8104003F096BA10BD000080B60020EA
:104B7000002805D0034AD16B016001B14860D063C1
:104B80007047000080B6002010B5044601F0CEFC4E
:104B90002068FFF7CFFF00202060BDE8104003F041
:104BA00079BA000070B50D460646002405E000BF46
:104BB00006EB8400FFF7E8FF641CAC42F8DB70BD35
:104BC0002DE9F041044617F0E7F92848E41C24F0E9
:104BD0000305016C2D1DA94200D90D46C46B13E0DD
:104BE00054F8042CAA420ED184B1216809B162683C
:104BF0004A60616809B122680A60C26BA24231D181
:104C00002168C1632EE02468002CE9D18046816BC5
:104C1000C0680F1857F8040C3E1A306838B10020ED
:104C200019F048F857F8040C3E1A3068D0B970688B
:104C3000A84217DB3044441B3046241D18F0F2FF15
:104C4000D8F80C10491BC8F80C10D8F814102944D7
:104C5000C8F814107068401B02D031460FF0C4F839
:104C600044F8045C2046BDE8F081000080B60020D6
:104C700010B5002417F090F90C490F2001EBC00289
:104C8000526C1AB101EBC000406C08E0401EF5D533
:104C900008E04168A14200D90C46806810B18068E4
:104CA0000028F6D1A4F10C0010BD000080B6002051
:104CB000002138B10449042202EBC000496B0858B6
:104CC00041680C390846704780B600200248816967
:104CD000491C81617047000080B600200549CA69FF
:104CE000521CCA61496B01EBC0010A78521C0A7060
:104CF00000F076B880B600207CB506460C46084623
:104D0000FFF7EAFE050020D0FEB13046FFF7D0FFE6
:104D1000A04200DA044601F009FC2846FFF7DEFF56
:104D200000903046FFF7DAFF0146019022460098D6
:104D3000FBF77EFD684600F03BF801A800F038F86C
:104D40003046FFF7F7FE03F0A5F928467CBD0000CA
:104D500010B501F0EBFBFFF78BFF64220849B0F5BB
:104D6000800F04D990FBF2F4086A444303E0096A17
:104D70004143B1FBF2F403F08DF9204610BD000071
:104D800080B600200549102805D94A68B0EB520FBB
:104D900002D3500800E010208860704740B7002020
:104DA00002488169491E81617047000080B6002079
:104DB0000A4902684B6B52F8082C03EBC2021378C5
:104DC000022B03D3CB690BB15B1ECB611178491E5B
:104DD00011700021016008467047000080B6002075
:104DE000002806D00349042202EBC000496B085892
:104DF0000830704780B600202DE9FC414FF00006D6
:104E00000B465FEA000834462BD032B111461846F3
:104E1000FFF742FE060000D101244046FFF75EFF87
:104E20000090078845686846FFF7C2FFCCB9B90013
:104E30002846091DFFF760FF050015D0FFF74EFF5C
:104E4000019040F8276001A8FFF7B2FF4046FFF746
:104E500045FF009045600188491C01806846FFF7C6
:104E6000A7FF2046BDE8FC813046FFF763FE012422
:104E7000F7E70820FFF73FBE7CB5050023D0FFF71A
:104E80002DFF00904068C0B1FFF728FF002401907B
:104E900005E0019800EB8400FFF776FE641C0098A3
:104EA0000088A042F5DC01A8FFF782FF0098001DF2
:104EB000FFF76AFE0099002008806846FFF778FF38
:104EC0002846FFF737FE7CBD7CB50C46FFF706FF92
:104ED00000900188A14220D94568F5B101F026FB78
:104EE0002846FFF7FBFE019000EB8400FFF74CFE25
:104EF00000990888401E80B20880401E019905E094
:104F000001EB8402526841F82420641C8442F7DDDE
:104F100001A8FFF74DFF03F0BDF86846FFF748FF13
:104F20007CBD38B5002430B1FFF7D8FE009004886E
:104F30006846FFF73DFF204638BD38B50D460024D2
:104F400048B1FFF7CBFE2946009000F04EF804462A
:104F50006846FFF72DFF204638BD2DE9FF41074683
:104F60000E46154600241046FFF7C5FD009030B3ED
:104F70003846FFF7B3FE3146019000F036F8029054
:104F80000098FFF7ABFE2A4603900299FBF750FC0E
:104F900002A8FFF70DFF03A8FFF70AFFDDE90020D5
:104FA000314600F02CF818B16846FFF7EDFD03E03C
:104FB0000098FFF793FE044601A8FFF7F9FE04B03E
:104FC0002046BDE8F08138B50D4601880024A9428D
:104FD00009D9406838B1FFF781FE009050F82540AC
:104FE0006846FFF7E5FE204638BD10B50024FFF700
:104FF000EAFF10B1FFF772FE0446204610BD38B537
:105000000C46014615460A880120A24210D949687B
:1050100000290DD00846FFF761FE00EB84040090E4
:105020002046FFF7B1FD68462560FFF7C1FE00206E
:1050300038BD000010B5044601F078FA044904EBCD
:10504000840001EB8000447903F024F8204610BD71
:10505000A4B800202DE9FC5F8946044601F066FAF9
:10506000484600F0E3FE2C4E09EB8907824656F8CD
:105070002700019029484FF00108016841B92749EC
:10508000C0F80080091D26480860084603F06AFF42
:10509000214A09EB8901BAF1000002EB81051BD01E
:1050A00002F092F883464FF07F4002F0E5F800F0FE
:1050B00093F800221146206800F0B8FB206842886F
:1050C0000188504602F032F946F8274085F80580FD
:1050D000584602F079F817E046F8274085F8058031
:1050E0002869464618B101F09FFF0020286174B17D
:1050F0000096E868A1684B46421AA8686168411AA0
:10510000206801F0EBFF2861484619F0DDFB02F052
:10511000C1FF0198BDE8FC9FA4B800203006002024
:1051200035C8010870B514460D46064601F0FEF973
:10513000204600F07BFE0300174804EB840109D0F1
:1051400050F8210041688068711A2A1A184602F046
:10515000DDF81CE000EB8104A268B24201D001221C
:1051600000E00022E368AB4201D0012300E000230D
:105170001A430CD0236943B150F82100816840687C
:105180006A1A311A184601F074FFC4E90265BDE8D5
:10519000704002F07FBF0000A4B8002010B5C2B27A
:1051A000CBB2D21A00D5524293B25B43C0F307226E
:1051B000C1F30724121B00D55242000C92B2A0EB9F
:1051C000114002FB023200B2002801DA404200B274
:1051D00080B200FB002010BD10B50021084600F091
:1051E000A7FE43F6FF725042BDE810401346014649
:1051F000AFF300802DE9FC411C4615460E460746DC
:1052000001F094F9042005F08BFF80461248C06835
:10521000C16C006D0F4406440D440444ADF80070A9
:10522000ADF80450ADF80260ADF8064068460EF0E7
:105230005BF907E023462A463146384605F06CFA0A
:105240000EF0DAF80028F5D1404605F069FF02F0CB
:1052500021FFBDE8FC810000E0010020B0F906302C
:10526000B0F90420B0F90210B0F90000FFF7C2BF96
:105270002DE9F8431C00DDE9089816460F4605465F
:1052800002D10DF079F8044600962E6843464A464E
:1052900021462846B047061E39D00DF062F88146F7
:1052A000698A30460CF0C0FB30460DF06FFF48466F
:1052B0000DF06CFF4FF000080CE000BFCDF800804F
:1052C00055F81CCF00231A4649462846E04700B34C
:1052D0000DF05CFF7F1E002FF0DC1D2148460DF015
:1052E000DCFD601C12D001F021F90DF089F830B11D
:1052F000FFF776FD8469B44201D02000F8D1B442B2
:1053000002D030460DF086FE02F0C4FE3046BDE805
:10531000F88330460CF02CFF0020F8E72DE9F0412F
:105320001C4616460D460746022B02DB0020BDE850
:10533000F0811C20FFF744FC0028F8D00DB1056176
:105340000AE0094A52F8241009B905E011460A6832
:10535000002AFBD109690161846186820021016014
:105360004160C0E90217E2E70402002070B51D4663
:10537000FFF7D4FF040009D000F00EF8E0680068E1
:1053800020B90348006800EB85008465204670BDA5
:10539000EC010020FFF7ECBB70B590B38269022AE4
:1053A00030DA1E4C54F8221019B944F8220032E0C9
:1053B00019464B68002BFBD106E0CB68C5681B681B
:1053C0002D68AB4203DD09680029F6D11AE0C1B1AE
:1053D000CB68C6681B683668B3420CD1838A012B40
:1053E00005D008E01946DB681B68AB4203DB0B689D
:1053F000002BF7D129B14B6833B118604A6842607D
:1054000004E0FFE7012070BD44F8220048608842B4
:1054100000D100210160002070BD000004020020C6
:1054200010B503E00468FFF7B7FF20460028F9D164
:1054300010BD00000A4A816952F82130834202D12E
:10544000036842F82130416809B102680A600168C6
:1054500009B142684A600021016041607047000064
:105460000402002000207047022801DB0020704762
:10547000054A52F8200004E0C26812688A42F6D059
:1054800000680028F8D1704704020020022801DBE0
:1054900000207047054951F8200004E0C168096800
:1054A0000029F6D000680028F8D1704704020020D7
:1054B0002DE9F8431D461646884604000CD0FFF738
:1054C0000DFC0090006807686846FFF771FC2B46EA
:1054D000324641462046B847BDE8F88338B5040057
:1054E0004FF000000AD02046FFF7F8FB009000685C
:1054F00045686846FFF75CFC2046A84738BD38B5CC
:1055000004004FF000000AD02046FFF7E7FB0090B0
:10551000006885686846FFF74BFC2046A84738BD01
:105520002DE9F041044602F0F2FD06191EE000BF2D
:1055300000F086FB052F00DD052700F0F7FF11487E
:105540000568FFF7C3FB2C0017D000BF02F0A2FDD7
:10555000641EFBD1384602F0D3FD1DB100F0E6FF1A
:105560006D1EFBD1FFF71CFC02F094FD02F0CFFD95
:10557000371A002FDCDCBDE8F081384602F0C0FDB0
:10558000F0E70000780400202DE9FC4706005FD01A
:1055900000F0CCFF00F062FC3C4C81462068B0F982
:1055A000228000F095FC216807468A8CD01B8884F5
:1055B00041E000BF47F6FF71304603F039FB8246F9
:1055C0000146304603F00AFB2168054691F82C009D
:1055D00000F00300012841D002283BD000204A8C73
:1055E000101A4884ADF800006A1E1044ADF804009B
:1055F000888CADF80200A9F101010844ADF806005D
:105600006A465146304602F069FF2168BDF8020043
:1056100088845146304602F02BFC064430780A2834
:105620001ED00D281CD0BDF80000216828444884F5
:10563000307818B1761C30780028BBD12068818C76
:1056400039448184818D21F00301818502F022FD9E
:10565000BDE8FC8705EBD5704010C0E72846BEE7E3
:10566000206890F82C1001F0030101290BD00229C9
:1056700009D0018C418431780A29D9D1828C02EB7E
:1056800009018184D4E7A0F82280F4E7EC0100202E
:1056900070B514460D46064600F048FF0548006800
:1056A000458484843046FFF76FFFBDE8704002F008
:1056B000F1BC0000EC01002047F6FF73AFF300805F
:1056C0002DE9FC411F4690460D4606004FF00004B0
:1056D0001AD000F02BFF65B128460DF047FD0400FD
:1056E00007D002462946684603F00FFB68460DF0D6
:1056F0003DFD3B4642462946304602F047FF2046E4
:105700000DF034FD02F0C6FCBDE8FC812DE9FF4F31
:1057100087B09046894607007DD000F007FFD9F892
:105720000040D9F8045021B228B2401A401C02901F
:1057300000F094FB064618F00C0F1ED038460A9A6B
:10574000029902F0B1FC08F00C01042904D00829E8
:1057500002D00C2911D104E0291400FB1610401CC2
:1057600009E02114C1EB254200FB1620401C00EB90
:10577000D07001EB600060F31F4448460DF0F6FC6A
:105780005FEA000B09D00246494604A8CDE904456A
:1057900003F0BBFA04A80DF0E9FCA6F1010A3846B3
:1057A0000A9A029903F026FC03900AEB244060F366
:1057B0001F45CDE900453846039903F00FFA18F06C
:1057C00003010ED001292CD002290ED1B9F90420F1
:1057D000B9F90010521A101A00EBD07001EB6000FA
:1057E00001E0B9F80000ADF800006A4638460399B8
:1057F00002F074FE38460A9A029903F0F1FB07445E
:1058000006EB244060F31F4438780028C7D158467F
:105810000DF0ACFC00E001E002F03CFC0BB0BDE898
:10582000F08FB9F80410081A401CDCE77CB5144668
:105830000D46064600F07AFE11480068C16C006D06
:105840000D4404443188681E0844ADF80400ADF8E6
:1058500000507188601E0844ADF80600ADF80240A3
:1058600068460DF041FE06E0224629463046FEF726
:105870000BF90DF0C1FD0028F6D102F00BFC7CBD48
:10588000EC0100201CB50A460146684603F05CFBAB
:1058900000F04CFE2548BDF80010006830F84C2F91
:1058A0001144ADF80010BDF8021082881144ADF823
:1058B0000210BDF8041002881144ADF80410BDF8C0
:1058C000061080880844ADF8060068460DF00CFE0E
:1058D00027E000BFBDF900400BE000BFBDF902109A
:1058E000204604F081FDBDF90610204604F07CFD41
:1058F000A41CBDF90400A042F0DABDF902400AE0A0
:10590000BDF90000214604F06FFDBDF904002146F9
:1059100004F06AFDA41CBDF90600A042F0DA0DF007
:105920006BFD0028D6D102F0B5FB1CBDEC010020B8
:105930002DE9F04F87B09B46DDE9109892460C4662
:10594000054600F0F3FD16480168C86C096D47195B
:105950000E1900EB0A0501EB0B04ADF81070ADF861
:105960001450ADF81260ADF8164004A80DF0BCFD5F
:1059700088B1DFF830B04FF0000ACDE90098CDE9EA
:1059800002BA2B4622463946304613F079F80DF01C
:1059900033FD0028F1D102F07DFB07B0BDE8F08FA8
:1059A000EC0100206DA400082DE9F04F87B09B4664
:1059B000DDE9109892460C46054600F0B7FD164802
:1059C0000168C86C096D47190E1900EB0A0501EB57
:1059D0000B04ADF81070ADF81450ADF81260ADF8CE
:1059E000164004A80DF080FD88B1DFF830B04FF00C
:1059F000010ACDE90098CDE902BA23462A4631468C
:105A0000384613F03DF80DF0F7FC0028F1D102F014
:105A100041FB07B0BDE8F08FEC010020F9A20008BF
:105A20002DE9FC4114460D46064600F07FFD114F5E
:105A30003968C86C096D054404440E44ADF8005043
:105A4000ADF80440ADF80260ADF8066068460DF0B0
:105A50004BFD08E0386822463146406E0368284610
:105A600098470DF0C9FC0028F4D102F013FBBDE803
:105A7000FC810000EC0100202DE9F0411C46154698
:105A80000E46074600F052FD0C480168C86C096DCF
:105A9000074405440E440C4400200DF025FD07E0AA
:105AA00023462A4631463846FEF73CF80DF0A4FC62
:105AB0000028F5D1BDE8F04102F0ECBAEC0100207D
:105AC0007CB50C46064600F031FD0F4D2868C16CD0
:105AD000006D0E440444ADF80460ADF80060ADF80C
